{"contracts/HealthChainCore.sol":{"HealthChainCore":{"abi":[{"inputs":[{"internalType":"address","name":"_owner","type":"address"}],"stateMutability":"nonpayable","type":"constructor"},{"inputs":[],"name":"AlreadyRevoked","type":"error"},{"inputs":[],"name":"DidTooLong","type":"error"},{"inputs":[],"name":"EmptyDid","type":"error"},{"inputs":[],"name":"EmptyMerkleRoot","type":"error"},{"inputs":[],"name":"InvalidAnchorIndex","type":"error"},{"inputs":[],"name":"IssuerAlreadyAuthorized","type":"error"},{"inputs":[],"name":"IssuerNotAuthorized","type":"error"},{"inputs":[],"name":"NoPendingTransfer","type":"error"},{"inputs":[],"name":"NotAnchorIssuer","type":"error"},{"inputs":[],"name":"NotAuthorizedIssuer","type":"error"},{"inputs":[],"name":"NotOwner","type":"error"},{"inputs":[],"name":"ZeroAddress","type":"error"},{"anonymous":false,"inputs":[{"indexed":true,"internalType":"bytes32","name":"patientDidHash","type":"bytes32"},{"indexed":true,"internalType":"uint256","name":"anchorIndex","type":"uint256"},{"indexed":true,"internalType":"address","name":"issuer","type":"address"},{"indexed":false,"internalType":"string","name":"reason","type":"string"}],"name":"AnchorRevoked","type":"event"},{"anonymous":false,"inputs":[{"indexed":true,"internalType":"address","name":"issuer","type":"address"},{"indexed":false,"internalType":"string","name":"issuerDid","type":"string"},{"indexed":false,"internalType":"string","name":"name","type":"string"}],"name":"IssuerAuthorized","type":"event"},{"anonymous":false,"inputs":[{"indexed":true,"internalType":"address","name":"issuer","type":"address"},{"indexed":false,"internalType":"string","name":"reason","type":"string"}],"name":"IssuerDeauthorized","type":"event"},{"anonymous":false,"inputs":[{"indexed":true,"internalType":"address","name":"currentOwner","type":"address"},{"indexed":true,"internalType":"address","name":"pendingOwner","type":"address"}],"name":"OwnershipTransferInitiated","type":"event"},{"anonymous":false,"inputs":[{"indexed":true,"internalType":"address","name":"previousOwner","type":"address"},{"indexed":true,"internalType":"address","name":"newOwner","type":"address"}],"name":"OwnershipTransferred","type":"event"},{"anonymous":false,"inputs":[{"indexed":true,"internalType":"bytes32","name":"patientDidHash","type":"bytes32"},{"indexed":true,"internalType":"bytes32","name":"merkleRoot","type":"bytes32"},{"indexed":true,"internalType":"address","name":"issuer","type":"address"},{"indexed":false,"internalType":"string","name":"issuerDid","type":"string"},{"indexed":false,"internalType":"uint256","name":"anchorIndex","type":"uint256"},{"indexed":false,"internalType":"uint16","name":"schemaVersion","type":"uint16"},{"indexed":false,"internalType":"uint64","name":"timestamp","type":"uint64"}],"name":"RootAnchored","type":"event"},{"inputs":[],"name":"MAX_DID_LENGTH","outputs":[{"internalType":"uint256","name":"","type":"uint256"}],"stateMutability":"view","type":"function"},{"inputs":[],"name":"SCHEMA_VERSION","outputs":[{"internalType":"uint16","name":"","type":"uint16"}],"stateMutability":"view","type":"function"},{"inputs":[],"name":"VERSION","outputs":[{"internalType":"string","name":"","type":"string"}],"stateMutability":"view","type":"function"},{"inputs":[],"name":"acceptOwnership","outputs":[],"stateMutability":"nonpayable","type":"function"},{"inputs":[{"internalType":"bytes32","name":"","type":"bytes32"}],"name":"anchorCount","outputs":[{"internalType":"uint256","name":"","type":"uint256"}],"stateMutability":"view","type":"function"},{"inputs":[{"internalType":"string","name":"patientDid","type":"string"},{"internalType":"bytes32","name":"merkleRoot","type":"bytes32"}],"name":"anchorRoot","outputs":[],"stateMutability":"nonpayable","type":"function"},{"inputs":[{"internalType":"address","name":"issuerAddress","type":"address"},{"internalType":"string","name":"issuerDid","type":"string"},{"internalType":"string","name":"name","type":"string"}],"name":"authorizeIssuer","outputs":[],"stateMutability":"nonpayable","type":"function"},{"inputs":[{"internalType":"address","name":"","type":"address"}],"name":"authorizedIssuers","outputs":[{"internalType":"bool","name":"","type":"bool"}],"stateMutability":"view","type":"function"},{"inputs":[{"internalType":"address","name":"issuerAddress","type":"address"},{"internalType":"string","name":"reason","type":"string"}],"name":"deauthorizeIssuer","outputs":[],"stateMutability":"nonpayable","type":"function"},{"inputs":[{"internalType":"string","name":"patientDid","type":"string"},{"internalType":"uint256","name":"anchorIndex","type":"uint256"}],"name":"getAnchorAt","outputs":[{"internalType":"bytes32","name":"merkleRoot","type":"bytes32"},{"internalType":"uint64","name":"timestamp","type":"uint64"},{"internalType":"uint16","name":"schemaVersion","type":"uint16"},{"internalType":"bool","name":"revoked","type":"bool"},{"internalType":"string","name":"issuerDid","type":"string"}],"stateMutability":"view","type":"function"},{"inputs":[{"internalType":"string","name":"patientDid","type":"string"}],"name":"getLatestRoot","outputs":[{"internalType":"bytes32","name":"merkleRoot","type":"bytes32"},{"internalType":"uint64","name":"timestamp","type":"uint64"},{"internalType":"uint16","name":"schemaVersion","type":"uint16"},{"internalType":"string","name":"issuerDid","type":"string"},{"internalType":"uint256","name":"anchorIndex","type":"uint256"}],"stateMutability":"view","type":"function"},{"inputs":[{"internalType":"string","name":"patientDid","type":"string"},{"internalType":"uint64","name":"targetTimestamp","type":"uint64"}],"name":"getRootAtTime","outputs":[{"internalType":"bytes32","name":"merkleRoot","type":"bytes32"},{"internalType":"uint64","name":"timestamp","type":"uint64"},{"internalType":"bool","name":"revoked","type":"bool"}],"stateMutability":"view","type":"function"},{"inputs":[{"internalType":"string","name":"patientDid","type":"string"}],"name":"hasAnchors","outputs":[{"internalType":"bool","name":"","type":"bool"}],"stateMutability":"view","type":"function"},{"inputs":[{"internalType":"address","name":"","type":"address"}],"name":"issuerDids","outputs":[{"internalType":"string","name":"","type":"string"}],"stateMutability":"view","type":"function"},{"inputs":[{"internalType":"address","name":"","type":"address"}],"name":"issuerNames","outputs":[{"internalType":"string","name":"","type":"string"}],"stateMutability":"view","type":"function"},{"inputs":[],"name":"owner","outputs":[{"internalType":"address","name":"","type":"address"}],"stateMutability":"view","type":"function"},{"inputs":[],"name":"pendingOwner","outputs":[{"internalType":"address","name":"","type":"address"}],"stateMutability":"view","type":"function"},{"inputs":[{"internalType":"string","name":"patientDid","type":"string"},{"internalType":"uint256","name":"anchorIndex","type":"uint256"},{"internalType":"string","name":"reason","type":"string"}],"name":"revokeAnchor","outputs":[],"stateMutability":"nonpayable","type":"function"},{"inputs":[{"internalType":"address","name":"newOwner","type":"address"}],"name":"transferOwnership","outputs":[],"stateMutability":"nonpayable","type":"function"},{"inputs":[{"internalType":"string","name":"patientDid","type":"string"},{"internalType":"bytes32","name":"leaf","type":"bytes32"},{"internalType":"bytes32[]","name":"proof","type":"bytes32[]"}],"name":"verifyCredential","outputs":[{"internalType":"bool","name":"valid","type":"bool"},{"internalType":"uint64","name":"timestamp","type":"uint64"},{"internalType":"bool","name":"revoked","type":"bool"}],"stateMutability":"view","type":"function"}],"evm":{"bytecode":{"linkReferences":{},"object":"608060405234801561000f575f80fd5b50604051611a99380380611a9983398101604081905261002e916100a2565b6001600160a01b0381166100555760405163d92e233d60e01b815260040160405180910390fd5b5f80546001600160a01b0319166001600160a01b03831690811782556040519091907f8be0079c531659141344cd1fd0a4f28419497f9722a3daafe3b4186f6b6457e0908290a3506100cf565b5f602082840312156100b2575f80fd5b81516001600160a01b03811681146100c8575f80fd5b9392505050565b6119bd806100dc5f395ff3fe608060405234801561000f575f80fd5b5060043610610127575f3560e01c80638da5cb5b116100a9578063e7af3bc41161006e578063e7af3bc4146102ed578063f2fde38b14610300578063f731fa0f14610313578063f8e47cee14610335578063ffa1ad7414610359575f80fd5b80638da5cb5b14610277578063bdfe72d1146102a1578063c30b7016146102b4578063ce1ac227146102c7578063e30c3978146102da575f80fd5b80635911ff96116100ef5780635911ff96146101fc5780636233b32a146102115780636435b91a1461022c57806379ba50971461024f578063852b4aa114610257575f80fd5b8063269c8d901461012b57806327f7aa7b1461014757806339f2571d1461016b578063478a1c4f146101a55780634cad6a99146101dd575b5f80fd5b61013461010081565b6040519081526020015b60405180910390f35b61015a6101553660046111ba565b61037d565b60405161013e959493929190611244565b61017e610179366004611288565b6104c8565b6040805193151584526001600160401b03909216602084015215159082015260600161013e565b6101b86101b3366004611325565b61060c565b604080519384526001600160401b03909216602084015215159082015260600161013e565b6101346101eb36600461137e565b60066020525f908152604090205481565b61020f61020a3660046111ba565b6106e0565b005b610219600181565b60405161ffff909116815260200161013e565b61023f61023a366004611395565b610930565b604051901515815260200161013e565b61020f610968565b61026a6102653660046113ee565b6109f5565b60405161013e919061140e565b5f54610289906001600160a01b031681565b6040516001600160a01b03909116815260200161013e565b61020f6102af366004611420565b610a8c565b61020f6102c2366004611493565b610c12565b61020f6102d53660046114e1565b610cd2565b600154610289906001600160a01b031681565b61026a6102fb3660046113ee565b610e0f565b61020f61030e3660046113ee565b610e27565b61023f6103213660046113ee565b60026020525f908152604090205460ff1681565b610348610343366004611395565b610ec8565b60405161013e95949392919061153d565b61026a604051806040016040528060058152602001640302e312e360dc1b81525081565b5f805f8060605f8888604051610394929190611580565b60408051918290039091205f81815260056020529190912080549192509088106103d157604051630d74cc7160e01b815260040160405180910390fd5b5f8189815481106103e4576103e461158f565b5f91825260209091206003909102018054600182015460028301805493945091926001600160401b03821692600160401b830461ffff1692600160501b900460ff16918190610432906115a3565b80601f016020809104026020016040519081016040528092919081815260200182805461045e906115a3565b80156104a95780601f10610480576101008083540402835291602001916104a9565b820191905f5260205f20905b81548152906001019060200180831161048c57829003601f168201915b5050505050905097509750975097509750505050939792965093509350565b5f805f8088886040516104dc929190611580565b60408051918290039091205f81815260056020529182208054919350910361050e575f805f9450945094505050610601565b80545f19905b801561057b57826105266001836115ef565b815481106105365761053661158f565b905f5260205f209060030201600101600a9054906101000a900460ff16610569576105626001826115ef565b915061057b565b8061057381611602565b915050610514565b505f198103610596575f806001955095509550505050610601565b5f6105c389898585815481106105ae576105ae61158f565b905f5260205f2090600302015f01548d61104e565b9050808383815481106105d8576105d861158f565b5f91825260208220600160039092020101549198506001600160401b0390911696509450505050505b955095509592505050565b5f805f808686604051610620929190611580565b60408051918290039091205f8181526005602052919091208054919250905b80156106ca575f826106526001846115ef565b815481106106625761066261158f565b5f918252602090912060039091020160018101549091506001600160401b038981169116116106b75780546001909101549096506001600160401b0381169550600160501b900460ff1693506106d792505050565b50806106c281611602565b91505061063f565b505f945084935083925050505b93509350939050565b335f9081526002602052604090205460ff1661070f576040516306aaf4f160e31b815260040160405180910390fd5b61071983836110f0565b80610737576040516385ac2b9960e01b815260040160405180910390fd5b5f8383604051610748929190611580565b604080519182900382205f81815260056020908152838220805460a0870186528887526001600160401b034216838801526001878701526060870184905233845260049092529390912080549295509093916080830191906107a9906115a3565b80601f01602080910402602001604051908101604052809291908181526020018280546107d5906115a3565b80156108205780601f106107f757610100808354040283529160200191610820565b820191905f5260205f20905b81548152906001019060200180831161080357829003601f168201915b5050509190925250508154600181810184555f9384526020938490208351600390930201918255928201519281018054604084015160608501511515600160501b0260ff60501b1961ffff909216600160401b0269ffffffffffffffffffff199093166001600160401b0390971696909617919091171693909317909255608081015190919060028201906108b59082611676565b5050508060016108c59190611735565b5f838152600660209081526040808320939093553380835260049091529082902091519091859185917f96ab535c647ee232936b16e62f48def4d25163eb399d73e1e37d2288fe7aee2291610921919087906001904290611748565b60405180910390a45050505050565b5f8060055f8585604051610945929190611580565b604051809103902081526020019081526020015f20805490501190505b92915050565b6001546001600160a01b031633146109935760405163357a03ed60e21b815260040160405180910390fd5b6001545f80546040516001600160a01b0393841693909116917f8be0079c531659141344cd1fd0a4f28419497f9722a3daafe3b4186f6b6457e091a3600180545f80546001600160a01b03199081166001600160a01b03841617909155169055565b60046020525f908152604090208054610a0d906115a3565b80601f0160208091040260200160405190810160405280929190818152602001828054610a39906115a3565b8015610a845780601f10610a5b57610100808354040283529160200191610a84565b820191905f5260205f20905b815481529060010190602001808311610a6757829003601f168201915b505050505081565b335f9081526002602052604090205460ff16610abb576040516306aaf4f160e31b815260040160405180910390fd5b5f8585604051610acc929190611580565b60408051918290039091205f8181526005602052919091208054919250908510610b0957604051630d74cc7160e01b815260040160405180910390fd5b5f818681548110610b1c57610b1c61158f565b5f9182526020808320338452600490915260409283902092516003909202019250610b4791906117f3565b604051809103902081600201604051610b6091906117f3565b604051809103902014610b8657604051630785b63f60e51b815260040160405180910390fd5b6001810154600160501b900460ff1615610bb35760405163905e710760e01b815260040160405180910390fd5b60018101805460ff60501b1916600160501b1790556040513390879085907f689b463db60f016e62ffc90170cf995743e7493ee875edf675111b49ff2da5ca90610c00908a908a9061188d565b60405180910390a45050505050505050565b5f546001600160a01b03163314610c3c576040516330cd747160e01b815260040160405180910390fd5b6001600160a01b0383165f9081526002602052604090205460ff16610c7457604051631d342f4760e01b815260040160405180910390fd5b6001600160a01b0383165f8181526002602052604090819020805460ff19169055517f320fff6cfc59912347121bbb58200b60a91f754c2643efbbd445a36ac76fbb5b90610cc5908590859061188d565b60405180910390a2505050565b5f546001600160a01b03163314610cfc576040516330cd747160e01b815260040160405180910390fd5b6001600160a01b038516610d235760405163d92e233d60e01b815260040160405180910390fd5b6001600160a01b0385165f9081526002602052604090205460ff1615610d5c576040516358ad870160e01b815260040160405180910390fd5b610d6684846110f0565b6001600160a01b0385165f908152600260209081526040808320805460ff1916600117905560049091529020610d9d8486836118a8565b506001600160a01b0385165f908152600360205260409020610dc08284836118a8565b50846001600160a01b03167f1e315a58f8463e139766244f30b15bf3ec85dc702457a270a1c791a4fed4843185858585604051610e009493929190611961565b60405180910390a25050505050565b60036020525f908152604090208054610a0d906115a3565b5f546001600160a01b03163314610e51576040516330cd747160e01b815260040160405180910390fd5b6001600160a01b038116610e785760405163d92e233d60e01b815260040160405180910390fd5b600180546001600160a01b0319166001600160a01b038381169182179092555f8054604051929316917fb150023a879fd806e3599b6ca8ee3b60f0e360ab3846d128d67ebce1a391639a9190a350565b5f805f60605f808787604051610edf929190611580565b60408051918290039091205f8181526005602052919091208054919250905b8015611024575f82610f116001846115ef565b81548110610f2157610f2161158f565b905f5260205f209060030201905080600101600a9054906101000a900460ff166110115780546001808301546001600160401b03811691600160401b90910461ffff16906002850190610f7490876115ef565b818054610f80906115a3565b80601f0160208091040260200160405190810160405280929190818152602001828054610fac906115a3565b8015610ff75780601f10610fce57610100808354040283529160200191610ff7565b820191905f5260205f20905b815481529060010190602001808311610fda57829003601f168201915b505050505091509850985098509850985050505050611044565b508061101c81611602565b915050610efe565b505060408051602081019091525f80825296508695508594509250839150505b9295509295909350565b5f81815b858110156110e4575f87878381811061106d5761106d61158f565b9050602002013590508083116110ae5760408051602081018590529081018290526060016040516020818303038152906040528051906020012092506110db565b60408051602081018390529081018490526060016040516020818303038152906040528051906020012092505b50600101611052565b50909214949350505050565b5f82828080601f0160208091040260200160405190810160405280939291908181526020018383808284375f920182905250845194955093909303925061114d9150505760405163aa72842f60e01b815260040160405180910390fd5b610100815111156111715760405163f253ceed60e01b815260040160405180910390fd5b505050565b5f8083601f840112611186575f80fd5b5081356001600160401b0381111561119c575f80fd5b6020830191508360208285010111156111b3575f80fd5b9250929050565b5f805f604084860312156111cc575f80fd5b83356001600160401b038111156111e1575f80fd5b6111ed86828701611176565b909790965060209590950135949350505050565b5f81518084525f5b8181101561122557602081850181015186830182015201611209565b505f602082860101526020601f19601f83011685010191505092915050565b8581526001600160401b038516602082015261ffff84166040820152821515606082015260a060808201525f61127d60a0830184611201565b979650505050505050565b5f805f805f6060868803121561129c575f80fd5b85356001600160401b03808211156112b2575f80fd5b6112be89838a01611176565b90975095506020880135945060408801359150808211156112dd575f80fd5b818801915088601f8301126112f0575f80fd5b8135818111156112fe575f80fd5b8960208260051b8501011115611312575f80fd5b9699959850939650602001949392505050565b5f805f60408486031215611337575f80fd5b83356001600160401b038082111561134d575f80fd5b61135987838801611176565b9095509350602086013591508082168214611372575f80fd5b50809150509250925092565b5f6020828403121561138e575f80fd5b5035919050565b5f80602083850312156113a6575f80fd5b82356001600160401b038111156113bb575f80fd5b6113c785828601611176565b90969095509350505050565b80356001600160a01b03811681146113e9575f80fd5b919050565b5f602082840312156113fe575f80fd5b611407826113d3565b9392505050565b602081525f6114076020830184611201565b5f805f805f60608688031215611434575f80fd5b85356001600160401b038082111561144a575f80fd5b61145689838a01611176565b9097509550602088013594506040880135915080821115611475575f80fd5b5061148288828901611176565b969995985093965092949392505050565b5f805f604084860312156114a5575f80fd5b6114ae846113d3565b925060208401356001600160401b038111156114c8575f80fd5b6114d486828701611176565b9497909650939450505050565b5f805f805f606086880312156114f5575f80fd5b6114fe866113d3565b945060208601356001600160401b0380821115611519575f80fd5b61152589838a01611176565b90965094506040880135915080821115611475575f80fd5b8581526001600160401b038516602082015261ffff8416604082015260a060608201525f61156e60a0830185611201565b90508260808301529695505050505050565b818382375f9101908152919050565b634e487b7160e01b5f52603260045260245ffd5b600181811c908216806115b757607f821691505b6020821081036115d557634e487b7160e01b5f52602260045260245ffd5b50919050565b634e487b7160e01b5f52601160045260245ffd5b81810381811115610962576109626115db565b5f81611610576116106115db565b505f190190565b634e487b7160e01b5f52604160045260245ffd5b601f82111561117157805f5260205f20601f840160051c810160208510156116505750805b601f840160051c820191505b8181101561166f575f815560010161165c565b5050505050565b81516001600160401b0381111561168f5761168f611617565b6116a38161169d84546115a3565b8461162b565b602080601f8311600181146116d6575f84156116bf5750858301515b5f19600386901b1c1916600185901b17855561172d565b5f85815260208120601f198616915b82811015611704578886015182559484019460019091019084016116e5565b508582101561172157878501515f19600388901b60f8161c191681555b505060018460011b0185555b505050505050565b80820180821115610962576109626115db565b608081525f808654611759816115a3565b80608086015260a060018084165f811461177a5760018114611796576117c5565b60ff19851660a089015260a084151560051b89010195506117c5565b8b5f526020805f205f5b868110156117bb5781548b82018701529084019082016117a0565b8a0160a001975050505b505050505060208301959095525061ffff9290921660408301526001600160401b0316606090910152919050565b5f808354611800816115a3565b60018281168015611818576001811461182d57611859565b60ff1984168752821515830287019450611859565b875f526020805f205f5b858110156118505781548a820152908401908201611837565b50505082870194505b50929695505050505050565b81835281816020850137505f828201602090810191909152601f909101601f19169091010190565b602081525f6118a0602083018486611865565b949350505050565b6001600160401b038311156118bf576118bf611617565b6118d3836118cd83546115a3565b8361162b565b5f601f841160018114611904575f85156118ed5750838201355b5f19600387901b1c1916600186901b17835561166f565b5f83815260208120601f198716915b828110156119335786850135825560209485019460019092019101611913565b508682101561194f575f1960f88860031b161c19848701351681555b505060018560011b0183555050505050565b604081525f611974604083018688611865565b828103602084015261127d81858761186556fea26469706673582212205b76aa0d3b605b4a1e6790cc5c355ff1955e1065cbc6cfe786eca12bc0d29ad264736f6c63430008180033","opcodes":"PUSH1 0x80 PUSH1 0x40 MSTORE CALLVALUE DUP1 ISZERO PUSH2 0xF JUMPI PUSH0 DUP1 REVERT JUMPDEST POP PUSH1 0x40 MLOAD PUSH2 0x1A99 CODESIZE SUB DUP1 PUSH2 0x1A99 DUP4 CODECOPY DUP2 ADD PUSH1 0x40 DUP2 SWAP1 MSTORE PUSH2 0x2E SWAP2 PUSH2 0xA2 JUMP JUMPDEST PUSH1 0x1 PUSH1 0x1 PUSH1 0xA0 SHL SUB DUP2 AND PUSH2 0x55 JUMPI PUSH1 0x40 MLOAD PUSH4 0xD92E233D PUSH1 0xE0 SHL DUP2 MSTORE PUSH1 0x4 ADD PUSH1 0x40 MLOAD DUP1 SWAP2 SUB SWAP1 REVERT JUMPDEST PUSH0 DUP1 SLOAD PUSH1 0x1 PUSH1 0x1 PUSH1 0xA0 SHL SUB NOT AND PUSH1 0x1 PUSH1 0x1 PUSH1 0xA0 SHL SUB DUP4 AND SWAP1 DUP2 OR DUP3 SSTORE PUSH1 0x40 MLOAD SWAP1 SWAP2 SWAP1 PUSH32 0x8BE0079C531659141344CD1FD0A4F28419497F9722A3DAAFE3B4186F6B6457E0 SWAP1 DUP3 SWAP1 LOG3 POP PUSH2 0xCF JUMP JUMPDEST PUSH0 PUSH1 0x20 DUP3 DUP5 SUB SLT ISZERO PUSH2 0xB2 JUMPI PUSH0 DUP1 REVERT JUMPDEST DUP2 MLOAD PUSH1 0x1 PUSH1 0x1 PUSH1 0xA0 SHL SUB DUP2 AND DUP2 EQ PUSH2 0xC8 JUMPI PUSH0 DUP1 REVERT JUMPDEST SWAP4 SWAP3 POP POP POP JUMP JUMPDEST PUSH2 0x19BD DUP1 PUSH2 0xDC PUSH0 CODECOPY PUSH0 RETURN INVALID PUSH1 0x80 PUSH1 0x40 MSTORE CALLVALUE DUP1 ISZERO PUSH2 0xF JUMPI PUSH0 DUP1 REVERT JUMPDEST POP PUSH1 0x4 CALLDATASIZE LT PUSH2 0x127 JUMPI PUSH0 CALLDATALOAD PUSH1 0xE0 SHR DUP1 PUSH4 0x8DA5CB5B GT PUSH2 0xA9 JUMPI DUP1 PUSH4 0xE7AF3BC4 GT PUSH2 0x6E JUMPI DUP1 PUSH4 0xE7AF3BC4 EQ PUSH2 0x2ED JUMPI DUP1 PUSH4 0xF2FDE38B EQ PUSH2 0x300 JUMPI DUP1 PUSH4 0xF731FA0F EQ PUSH2 0x313 JUMPI DUP1 PUSH4 0xF8E47CEE EQ PUSH2 0x335 JUMPI DUP1 PUSH4 0xFFA1AD74 EQ PUSH2 0x359 JUMPI PUSH0 DUP1 REVERT JUMPDEST DUP1 PUSH4 0x8DA5CB5B EQ PUSH2 0x277 JUMPI DUP1 PUSH4 0xBDFE72D1 EQ PUSH2 0x2A1 JUMPI DUP1 PUSH4 0xC30B7016 EQ PUSH2 0x2B4 JUMPI DUP1 PUSH4 0xCE1AC227 EQ PUSH2 0x2C7 JUMPI DUP1 PUSH4 0xE30C3978 EQ PUSH2 0x2DA JUMPI PUSH0 DUP1 REVERT JUMPDEST DUP1 PUSH4 0x5911FF96 GT PUSH2 0xEF JUMPI DUP1 PUSH4 0x5911FF96 EQ PUSH2 0x1FC JUMPI DUP1 PUSH4 0x6233B32A EQ PUSH2 0x211 JUMPI DUP1 PUSH4 0x6435B91A EQ PUSH2 0x22C JUMPI DUP1 PUSH4 0x79BA5097 EQ PUSH2 0x24F JUMPI DUP1 PUSH4 0x852B4AA1 EQ PUSH2 0x257 JUMPI PUSH0 DUP1 REVERT JUMPDEST DUP1 PUSH4 0x269C8D90 EQ PUSH2 0x12B JUMPI DUP1 PUSH4 0x27F7AA7B EQ PUSH2 0x147 JUMPI DUP1 PUSH4 0x39F2571D EQ PUSH2 0x16B JUMPI DUP1 PUSH4 0x478A1C4F EQ PUSH2 0x1A5 JUMPI DUP1 PUSH4 0x4CAD6A99 EQ PUSH2 0x1DD JUMPI JUMPDEST PUSH0 DUP1 REVERT JUMPDEST PUSH2 0x134 PUSH2 0x100 DUP2 JUMP JUMPDEST PUSH1 0x40 MLOAD SWAP1 DUP2 MSTORE PUSH1 0x20 ADD JUMPDEST PUSH1 0x40 MLOAD DUP1 SWAP2 SUB SWAP1 RETURN JUMPDEST PUSH2 0x15A PUSH2 0x155 CALLDATASIZE PUSH1 0x4 PUSH2 0x11BA JUMP JUMPDEST PUSH2 0x37D JUMP JUMPDEST PUSH1 0x40 MLOAD PUSH2 0x13E SWAP6 SWAP5 SWAP4 SWAP3 SWAP2 SWAP1 PUSH2 0x1244 JUMP JUMPDEST PUSH2 0x17E PUSH2 0x179 CALLDATASIZE PUSH1 0x4 PUSH2 0x1288 JUMP JUMPDEST PUSH2 0x4C8 JUMP JUMPDEST PUSH1 0x40 DUP1 MLOAD SWAP4 ISZERO ISZERO DUP5 MSTORE PUSH1 0x1 PUSH1 0x1 PUSH1 0x40 SHL SUB SWAP1 SWAP3 AND PUSH1 0x20 DUP5 ADD MSTORE ISZERO ISZERO SWAP1 DUP3 ADD MSTORE PUSH1 0x60 ADD PUSH2 0x13E JUMP JUMPDEST PUSH2 0x1B8 PUSH2 0x1B3 CALLDATASIZE PUSH1 0x4 PUSH2 0x1325 JUMP JUMPDEST PUSH2 0x60C JUMP JUMPDEST PUSH1 0x40 DUP1 MLOAD SWAP4 DUP5 MSTORE PUSH1 0x1 PUSH1 0x1 PUSH1 0x40 SHL SUB SWAP1 SWAP3 AND PUSH1 0x20 DUP5 ADD MSTORE ISZERO ISZERO SWAP1 DUP3 ADD MSTORE PUSH1 0x60 ADD PUSH2 0x13E JUMP JUMPDEST PUSH2 0x134 PUSH2 0x1EB CALLDATASIZE PUSH1 0x4 PUSH2 0x137E JUMP JUMPDEST PUSH1 0x6 PUSH1 0x20 MSTORE PUSH0 SWAP1 DUP2 MSTORE PUSH1 0x40 SWAP1 KECCAK256 SLOAD DUP2 JUMP JUMPDEST PUSH2 0x20F PUSH2 0x20A CALLDATASIZE PUSH1 0x4 PUSH2 0x11BA JUMP JUMPDEST PUSH2 0x6E0 JUMP JUMPDEST STOP JUMPDEST PUSH2 0x219 PUSH1 0x1 DUP2 JUMP JUMPDEST PUSH1 0x40 MLOAD PUSH2 0xFFFF SWAP1 SWAP2 AND DUP2 MSTORE PUSH1 0x20 ADD PUSH2 0x13E JUMP JUMPDEST PUSH2 0x23F PUSH2 0x23A CALLDATASIZE PUSH1 0x4 PUSH2 0x1395 JUMP JUMPDEST PUSH2 0x930 JUMP JUMPDEST PUSH1 0x40 MLOAD SWAP1 ISZERO ISZERO DUP2 MSTORE PUSH1 0x20 ADD PUSH2 0x13E JUMP JUMPDEST PUSH2 0x20F PUSH2 0x968 JUMP JUMPDEST PUSH2 0x26A PUSH2 0x265 CALLDATASIZE PUSH1 0x4 PUSH2 0x13EE JUMP JUMPDEST PUSH2 0x9F5 JUMP JUMPDEST PUSH1 0x40 MLOAD PUSH2 0x13E SWAP2 SWAP1 PUSH2 0x140E JUMP JUMPDEST PUSH0 SLOAD PUSH2 0x289 SWAP1 PUSH1 0x1 PUSH1 0x1 PUSH1 0xA0 SHL SUB AND DUP2 JUMP JUMPDEST PUSH1 0x40 MLOAD PUSH1 0x1 PUSH1 0x1 PUSH1 0xA0 SHL SUB SWAP1 SWAP2 AND DUP2 MSTORE PUSH1 0x20 ADD PUSH2 0x13E JUMP JUMPDEST PUSH2 0x20F PUSH2 0x2AF CALLDATASIZE PUSH1 0x4 PUSH2 0x1420 JUMP JUMPDEST PUSH2 0xA8C JUMP JUMPDEST PUSH2 0x20F PUSH2 0x2C2 CALLDATASIZE PUSH1 0x4 PUSH2 0x1493 JUMP JUMPDEST PUSH2 0xC12 JUMP JUMPDEST PUSH2 0x20F PUSH2 0x2D5 CALLDATASIZE PUSH1 0x4 PUSH2 0x14E1 JUMP JUMPDEST PUSH2 0xCD2 JUMP JUMPDEST PUSH1 0x1 SLOAD PUSH2 0x289 SWAP1 PUSH1 0x1 PUSH1 0x1 PUSH1 0xA0 SHL SUB AND DUP2 JUMP JUMPDEST PUSH2 0x26A PUSH2 0x2FB CALLDATASIZE PUSH1 0x4 PUSH2 0x13EE JUMP JUMPDEST PUSH2 0xE0F JUMP JUMPDEST PUSH2 0x20F PUSH2 0x30E CALLDATASIZE PUSH1 0x4 PUSH2 0x13EE JUMP JUMPDEST PUSH2 0xE27 JUMP JUMPDEST PUSH2 0x23F PUSH2 0x321 CALLDATASIZE PUSH1 0x4 PUSH2 0x13EE JUMP JUMPDEST PUSH1 0x2 PUSH1 0x20 MSTORE PUSH0 SWAP1 DUP2 MSTORE PUSH1 0x40 SWAP1 KECCAK256 SLOAD PUSH1 0xFF AND DUP2 JUMP JUMPDEST PUSH2 0x348 PUSH2 0x343 CALLDATASIZE PUSH1 0x4 PUSH2 0x1395 JUMP JUMPDEST PUSH2 0xEC8 JUMP JUMPDEST PUSH1 0x40 MLOAD PUSH2 0x13E SWAP6 SWAP5 SWAP4 SWAP3 SWAP2 SWAP1 PUSH2 0x153D JUMP JUMPDEST PUSH2 0x26A PUSH1 0x40 MLOAD DUP1 PUSH1 0x40 ADD PUSH1 0x40 MSTORE DUP1 PUSH1 0x5 DUP2 MSTORE PUSH1 0x20 ADD PUSH5 0x302E312E3 PUSH1 0xDC SHL DUP2 MSTORE POP DUP2 JUMP JUMPDEST PUSH0 DUP1 PUSH0 DUP1 PUSH1 0x60 PUSH0 DUP9 DUP9 PUSH1 0x40 MLOAD PUSH2 0x394 SWAP3 SWAP2 SWAP1 PUSH2 0x1580 JUMP JUMPDEST PUSH1 0x40 DUP1 MLOAD SWAP2 DUP3 SWAP1 SUB SWAP1 SWAP2 KECCAK256 PUSH0 DUP2 DUP2 MSTORE PUSH1 0x5 PUSH1 0x20 MSTORE SWAP2 SWAP1 SWAP2 KECCAK256 DUP1 SLOAD SWAP2 SWAP3 POP SWAP1 DUP9 LT PUSH2 0x3D1 JUMPI PUSH1 0x40 MLOAD PUSH4 0xD74CC71 PUSH1 0xE0 SHL DUP2 MSTORE PUSH1 0x4 ADD PUSH1 0x40 MLOAD DUP1 SWAP2 SUB SWAP1 REVERT JUMPDEST PUSH0 DUP2 DUP10 DUP2 SLOAD DUP2 LT PUSH2 0x3E4 JUMPI PUSH2 0x3E4 PUSH2 0x158F JUMP JUMPDEST PUSH0 SWAP2 DUP3 MSTORE PUSH1 0x20 SWAP1 SWAP2 KECCAK256 PUSH1 0x3 SWAP1 SWAP2 MUL ADD DUP1 SLOAD PUSH1 0x1 DUP3 ADD SLOAD PUSH1 0x2 DUP4 ADD DUP1 SLOAD SWAP4 SWAP5 POP SWAP2 SWAP3 PUSH1 0x1 PUSH1 0x1 PUSH1 0x40 SHL SUB DUP3 AND SWAP3 PUSH1 0x1 PUSH1 0x40 SHL DUP4 DIV PUSH2 0xFFFF AND SWAP3 PUSH1 0x1 PUSH1 0x50 SHL SWAP1 DIV PUSH1 0xFF AND SWAP2 DUP2 SWAP1 PUSH2 0x432 SWAP1 PUSH2 0x15A3 JUMP JUMPDEST DUP1 PUSH1 0x1F ADD PUSH1 0x20 DUP1 SWAP2 DIV MUL PUSH1 0x20 ADD PUSH1 0x40 MLOAD SWAP1 DUP2 ADD PUSH1 0x40 MSTORE DUP1 SWAP3 SWAP2 SWAP1 DUP2 DUP2 MSTORE PUSH1 0x20 ADD DUP3 DUP1 SLOAD PUSH2 0x45E SWAP1 PUSH2 0x15A3 JUMP JUMPDEST DUP1 ISZERO PUSH2 0x4A9 JUMPI DUP1 PUSH1 0x1F LT PUSH2 0x480 JUMPI PUSH2 0x100 DUP1 DUP4 SLOAD DIV MUL DUP4 MSTORE SWAP2 PUSH1 0x20 ADD SWAP2 PUSH2 0x4A9 JUMP JUMPDEST DUP3 ADD SWAP2 SWAP1 PUSH0 MSTORE PUSH1 0x20 PUSH0 KECCAK256 SWAP1 JUMPDEST DUP2 SLOAD DUP2 MSTORE SWAP1 PUSH1 0x1 ADD SWAP1 PUSH1 0x20 ADD DUP1 DUP4 GT PUSH2 0x48C JUMPI DUP3 SWAP1 SUB PUSH1 0x1F AND DUP3 ADD SWAP2 JUMPDEST POP POP POP POP POP SWAP1 POP SWAP8 POP SWAP8 POP SWAP8 POP SWAP8 POP SWAP8 POP POP POP POP SWAP4 SWAP8 SWAP3 SWAP7 POP SWAP4 POP SWAP4 POP JUMP JUMPDEST PUSH0 DUP1 PUSH0 DUP1 DUP9 DUP9 PUSH1 0x40 MLOAD PUSH2 0x4DC SWAP3 SWAP2 SWAP1 PUSH2 0x1580 JUMP JUMPDEST PUSH1 0x40 DUP1 MLOAD SWAP2 DUP3 SWAP1 SUB SWAP1 SWAP2 KECCAK256 PUSH0 DUP2 DUP2 MSTORE PUSH1 0x5 PUSH1 0x20 MSTORE SWAP2 DUP3 KECCAK256 DUP1 SLOAD SWAP2 SWAP4 POP SWAP2 SUB PUSH2 0x50E JUMPI PUSH0 DUP1 PUSH0 SWAP5 POP SWAP5 POP SWAP5 POP POP POP PUSH2 0x601 JUMP JUMPDEST DUP1 SLOAD PUSH0 NOT SWAP1 JUMPDEST DUP1 ISZERO PUSH2 0x57B JUMPI DUP3 PUSH2 0x526 PUSH1 0x1 DUP4 PUSH2 0x15EF JUMP JUMPDEST DUP2 SLOAD DUP2 LT PUSH2 0x536 JUMPI PUSH2 0x536 PUSH2 0x158F JUMP JUMPDEST SWAP1 PUSH0 MSTORE PUSH1 0x20 PUSH0 KECCAK256 SWAP1 PUSH1 0x3 MUL ADD PUSH1 0x1 ADD PUSH1 0xA SWAP1 SLOAD SWAP1 PUSH2 0x100 EXP SWAP1 DIV PUSH1 0xFF AND PUSH2 0x569 JUMPI PUSH2 0x562 PUSH1 0x1 DUP3 PUSH2 0x15EF JUMP JUMPDEST SWAP2 POP PUSH2 0x57B JUMP JUMPDEST DUP1 PUSH2 0x573 DUP2 PUSH2 0x1602 JUMP JUMPDEST SWAP2 POP POP PUSH2 0x514 JUMP JUMPDEST POP PUSH0 NOT DUP2 SUB PUSH2 0x596 JUMPI PUSH0 DUP1 PUSH1 0x1 SWAP6 POP SWAP6 POP SWAP6 POP POP POP POP PUSH2 0x601 JUMP JUMPDEST PUSH0 PUSH2 0x5C3 DUP10 DUP10 DUP6 DUP6 DUP2 SLOAD DUP2 LT PUSH2 0x5AE JUMPI PUSH2 0x5AE PUSH2 0x158F JUMP JUMPDEST SWAP1 PUSH0 MSTORE PUSH1 0x20 PUSH0 KECCAK256 SWAP1 PUSH1 0x3 MUL ADD PUSH0 ADD SLOAD DUP14 PUSH2 0x104E JUMP JUMPDEST SWAP1 POP DUP1 DUP4 DUP4 DUP2 SLOAD DUP2 LT PUSH2 0x5D8 JUMPI PUSH2 0x5D8 PUSH2 0x158F JUMP JUMPDEST PUSH0 SWAP2 DUP3 MSTORE PUSH1 0x20 DUP3 KECCAK256 PUSH1 0x1 PUSH1 0x3 SWAP1 SWAP3 MUL ADD ADD SLOAD SWAP2 SWAP9 POP PUSH1 0x1 PUSH1 0x1 PUSH1 0x40 SHL SUB SWAP1 SWAP2 AND SWAP7 POP SWAP5 POP POP POP POP POP JUMPDEST SWAP6 POP SWAP6 POP SWAP6 SWAP3 POP POP POP JUMP JUMPDEST PUSH0 DUP1 PUSH0 DUP1 DUP7 DUP7 PUSH1 0x40 MLOAD PUSH2 0x620 SWAP3 SWAP2 SWAP1 PUSH2 0x1580 JUMP JUMPDEST PUSH1 0x40 DUP1 MLOAD SWAP2 DUP3 SWAP1 SUB SWAP1 SWAP2 KECCAK256 PUSH0 DUP2 DUP2 MSTORE PUSH1 0x5 PUSH1 0x20 MSTORE SWAP2 SWAP1 SWAP2 KECCAK256 DUP1 SLOAD SWAP2 SWAP3 POP SWAP1 JUMPDEST DUP1 ISZERO PUSH2 0x6CA JUMPI PUSH0 DUP3 PUSH2 0x652 PUSH1 0x1 DUP5 PUSH2 0x15EF JUMP JUMPDEST DUP2 SLOAD DUP2 LT PUSH2 0x662 JUMPI PUSH2 0x662 PUSH2 0x158F JUMP JUMPDEST PUSH0 SWAP2 DUP3 MSTORE PUSH1 0x20 SWAP1 SWAP2 KECCAK256 PUSH1 0x3 SWAP1 SWAP2 MUL ADD PUSH1 0x1 DUP2 ADD SLOAD SWAP1 SWAP2 POP PUSH1 0x1 PUSH1 0x1 PUSH1 0x40 SHL SUB DUP10 DUP2 AND SWAP2 AND GT PUSH2 0x6B7 JUMPI DUP1 SLOAD PUSH1 0x1 SWAP1 SWAP2 ADD SLOAD SWAP1 SWAP7 POP PUSH1 0x1 PUSH1 0x1 PUSH1 0x40 SHL SUB DUP2 AND SWAP6 POP PUSH1 0x1 PUSH1 0x50 SHL SWAP1 DIV PUSH1 0xFF AND SWAP4 POP PUSH2 0x6D7 SWAP3 POP POP POP JUMP JUMPDEST POP DUP1 PUSH2 0x6C2 DUP2 PUSH2 0x1602 JUMP JUMPDEST SWAP2 POP POP PUSH2 0x63F JUMP JUMPDEST POP PUSH0 SWAP5 POP DUP5 SWAP4 POP DUP4 SWAP3 POP POP POP JUMPDEST SWAP4 POP SWAP4 POP SWAP4 SWAP1 POP JUMP JUMPDEST CALLER PUSH0 SWAP1 DUP2 MSTORE PUSH1 0x2 PUSH1 0x20 MSTORE PUSH1 0x40 SWAP1 KECCAK256 SLOAD PUSH1 0xFF AND PUSH2 0x70F JUMPI PUSH1 0x40 MLOAD PUSH4 0x6AAF4F1 PUSH1 0xE3 SHL DUP2 MSTORE PUSH1 0x4 ADD PUSH1 0x40 MLOAD DUP1 SWAP2 SUB SWAP1 REVERT JUMPDEST PUSH2 0x719 DUP4 DUP4 PUSH2 0x10F0 JUMP JUMPDEST DUP1 PUSH2 0x737 JUMPI PUSH1 0x40 MLOAD PUSH4 0x85AC2B99 PUSH1 0xE0 SHL DUP2 MSTORE PUSH1 0x4 ADD PUSH1 0x40 MLOAD DUP1 SWAP2 SUB SWAP1 REVERT JUMPDEST PUSH0 DUP4 DUP4 PUSH1 0x40 MLOAD PUSH2 0x748 SWAP3 SWAP2 SWAP1 PUSH2 0x1580 JUMP JUMPDEST PUSH1 0x40 DUP1 MLOAD SWAP2 DUP3 SWAP1 SUB DUP3 KECCAK256 PUSH0 DUP2 DUP2 MSTORE PUSH1 0x5 PUSH1 0x20 SWAP1 DUP2 MSTORE DUP4 DUP3 KECCAK256 DUP1 SLOAD PUSH1 0xA0 DUP8 ADD DUP7 MSTORE DUP9 DUP8 MSTORE PUSH1 0x1 PUSH1 0x1 PUSH1 0x40 SHL SUB TIMESTAMP AND DUP4 DUP9 ADD MSTORE PUSH1 0x1 DUP8 DUP8 ADD MSTORE PUSH1 0x60 DUP8 ADD DUP5 SWAP1 MSTORE CALLER DUP5 MSTORE PUSH1 0x4 SWAP1 SWAP3 MSTORE SWAP4 SWAP1 SWAP2 KECCAK256 DUP1 SLOAD SWAP3 SWAP6 POP SWAP1 SWAP4 SWAP2 PUSH1 0x80 DUP4 ADD SWAP2 SWAP1 PUSH2 0x7A9 SWAP1 PUSH2 0x15A3 JUMP JUMPDEST DUP1 PUSH1 0x1F ADD PUSH1 0x20 DUP1 SWAP2 DIV MUL PUSH1 0x20 ADD PUSH1 0x40 MLOAD SWAP1 DUP2 ADD PUSH1 0x40 MSTORE DUP1 SWAP3 SWAP2 SWAP1 DUP2 DUP2 MSTORE PUSH1 0x20 ADD DUP3 DUP1 SLOAD PUSH2 0x7D5 SWAP1 PUSH2 0x15A3 JUMP JUMPDEST DUP1 ISZERO PUSH2 0x820 JUMPI DUP1 PUSH1 0x1F LT PUSH2 0x7F7 JUMPI PUSH2 0x100 DUP1 DUP4 SLOAD DIV MUL DUP4 MSTORE SWAP2 PUSH1 0x20 ADD SWAP2 PUSH2 0x820 JUMP JUMPDEST DUP3 ADD SWAP2 SWAP1 PUSH0 MSTORE PUSH1 0x20 PUSH0 KECCAK256 SWAP1 JUMPDEST DUP2 SLOAD DUP2 MSTORE SWAP1 PUSH1 0x1 ADD SWAP1 PUSH1 0x20 ADD DUP1 DUP4 GT PUSH2 0x803 JUMPI DUP3 SWAP1 SUB PUSH1 0x1F AND DUP3 ADD SWAP2 JUMPDEST POP POP POP SWAP2 SWAP1 SWAP3 MSTORE POP POP DUP2 SLOAD PUSH1 0x1 DUP2 DUP2 ADD DUP5 SSTORE PUSH0 SWAP4 DUP5 MSTORE PUSH1 0x20 SWAP4 DUP5 SWAP1 KECCAK256 DUP4 MLOAD PUSH1 0x3 SWAP1 SWAP4 MUL ADD SWAP2 DUP3 SSTORE SWAP3 DUP3 ADD MLOAD SWAP3 DUP2 ADD DUP1 SLOAD PUSH1 0x40 DUP5 ADD MLOAD PUSH1 0x60 DUP6 ADD MLOAD ISZERO ISZERO PUSH1 0x1 PUSH1 0x50 SHL MUL PUSH1 0xFF PUSH1 0x50 SHL NOT PUSH2 0xFFFF SWAP1 SWAP3 AND PUSH1 0x1 PUSH1 0x40 SHL MUL PUSH10 0xFFFFFFFFFFFFFFFFFFFF NOT SWAP1 SWAP4 AND PUSH1 0x1 PUSH1 0x1 PUSH1 0x40 SHL SUB SWAP1 SWAP8 AND SWAP7 SWAP1 SWAP7 OR SWAP2 SWAP1 SWAP2 OR AND SWAP4 SWAP1 SWAP4 OR SWAP1 SWAP3 SSTORE PUSH1 0x80 DUP2 ADD MLOAD SWAP1 SWAP2 SWAP1 PUSH1 0x2 DUP3 ADD SWAP1 PUSH2 0x8B5 SWAP1 DUP3 PUSH2 0x1676 JUMP JUMPDEST POP POP POP DUP1 PUSH1 0x1 PUSH2 0x8C5 SWAP2 SWAP1 PUSH2 0x1735 JUMP JUMPDEST PUSH0 DUP4 DUP2 MSTORE PUSH1 0x6 PUSH1 0x20 SWAP1 DUP2 MSTORE PUSH1 0x40 DUP1 DUP4 KECCAK256 SWAP4 SWAP1 SWAP4 SSTORE CALLER DUP1 DUP4 MSTORE PUSH1 0x4 SWAP1 SWAP2 MSTORE SWAP1 DUP3 SWAP1 KECCAK256 SWAP2 MLOAD SWAP1 SWAP2 DUP6 SWAP2 DUP6 SWAP2 PUSH32 0x96AB535C647EE232936B16E62F48DEF4D25163EB399D73E1E37D2288FE7AEE22 SWAP2 PUSH2 0x921 SWAP2 SWAP1 DUP8 SWAP1 PUSH1 0x1 SWAP1 TIMESTAMP SWAP1 PUSH2 0x1748 JUMP JUMPDEST PUSH1 0x40 MLOAD DUP1 SWAP2 SUB SWAP1 LOG4 POP POP POP POP POP JUMP JUMPDEST PUSH0 DUP1 PUSH1 0x5 PUSH0 DUP6 DUP6 PUSH1 0x40 MLOAD PUSH2 0x945 SWAP3 SWAP2 SWAP1 PUSH2 0x1580 JUMP JUMPDEST PUSH1 0x40 MLOAD DUP1 SWAP2 SUB SWAP1 KECCAK256 DUP2 MSTORE PUSH1 0x20 ADD SWAP1 DUP2 MSTORE PUSH1 0x20 ADD PUSH0 KECCAK256 DUP1 SLOAD SWAP1 POP GT SWAP1 POP JUMPDEST SWAP3 SWAP2 POP POP JUMP JUMPDEST PUSH1 0x1 SLOAD PUSH1 0x1 PUSH1 0x1 PUSH1 0xA0 SHL SUB AND CALLER EQ PUSH2 0x993 JUMPI PUSH1 0x40 MLOAD PUSH4 0x357A03ED PUSH1 0xE2 SHL DUP2 MSTORE PUSH1 0x4 ADD PUSH1 0x40 MLOAD DUP1 SWAP2 SUB SWAP1 REVERT JUMPDEST PUSH1 0x1 SLOAD PUSH0 DUP1 SLOAD PUSH1 0x40 MLOAD PUSH1 0x1 PUSH1 0x1 PUSH1 0xA0 SHL SUB SWAP4 DUP5 AND SWAP4 SWAP1 SWAP2 AND SWAP2 PUSH32 0x8BE0079C531659141344CD1FD0A4F28419497F9722A3DAAFE3B4186F6B6457E0 SWAP2 LOG3 PUSH1 0x1 DUP1 SLOAD PUSH0 DUP1 SLOAD PUSH1 0x1 PUSH1 0x1 PUSH1 0xA0 SHL SUB NOT SWAP1 DUP2 AND PUSH1 0x1 PUSH1 0x1 PUSH1 0xA0 SHL SUB DUP5 AND OR SWAP1 SWAP2 SSTORE AND SWAP1 SSTORE JUMP JUMPDEST PUSH1 0x4 PUSH1 0x20 MSTORE PUSH0 SWAP1 DUP2 MSTORE PUSH1 0x40 SWAP1 KECCAK256 DUP1 SLOAD PUSH2 0xA0D SWAP1 PUSH2 0x15A3 JUMP JUMPDEST DUP1 PUSH1 0x1F ADD PUSH1 0x20 DUP1 SWAP2 DIV MUL PUSH1 0x20 ADD PUSH1 0x40 MLOAD SWAP1 DUP2 ADD PUSH1 0x40 MSTORE DUP1 SWAP3 SWAP2 SWAP1 DUP2 DUP2 MSTORE PUSH1 0x20 ADD DUP3 DUP1 SLOAD PUSH2 0xA39 SWAP1 PUSH2 0x15A3 JUMP JUMPDEST DUP1 ISZERO PUSH2 0xA84 JUMPI DUP1 PUSH1 0x1F LT PUSH2 0xA5B JUMPI PUSH2 0x100 DUP1 DUP4 SLOAD DIV MUL DUP4 MSTORE SWAP2 PUSH1 0x20 ADD SWAP2 PUSH2 0xA84 JUMP JUMPDEST DUP3 ADD SWAP2 SWAP1 PUSH0 MSTORE PUSH1 0x20 PUSH0 KECCAK256 SWAP1 JUMPDEST DUP2 SLOAD DUP2 MSTORE SWAP1 PUSH1 0x1 ADD SWAP1 PUSH1 0x20 ADD DUP1 DUP4 GT PUSH2 0xA67 JUMPI DUP3 SWAP1 SUB PUSH1 0x1F AND DUP3 ADD SWAP2 JUMPDEST POP POP POP POP POP DUP2 JUMP JUMPDEST CALLER PUSH0 SWAP1 DUP2 MSTORE PUSH1 0x2 PUSH1 0x20 MSTORE PUSH1 0x40 SWAP1 KECCAK256 SLOAD PUSH1 0xFF AND PUSH2 0xABB JUMPI PUSH1 0x40 MLOAD PUSH4 0x6AAF4F1 PUSH1 0xE3 SHL DUP2 MSTORE PUSH1 0x4 ADD PUSH1 0x40 MLOAD DUP1 SWAP2 SUB SWAP1 REVERT JUMPDEST PUSH0 DUP6 DUP6 PUSH1 0x40 MLOAD PUSH2 0xACC SWAP3 SWAP2 SWAP1 PUSH2 0x1580 JUMP JUMPDEST PUSH1 0x40 DUP1 MLOAD SWAP2 DUP3 SWAP1 SUB SWAP1 SWAP2 KECCAK256 PUSH0 DUP2 DUP2 MSTORE PUSH1 0x5 PUSH1 0x20 MSTORE SWAP2 SWAP1 SWAP2 KECCAK256 DUP1 SLOAD SWAP2 SWAP3 POP SWAP1 DUP6 LT PUSH2 0xB09 JUMPI PUSH1 0x40 MLOAD PUSH4 0xD74CC71 PUSH1 0xE0 SHL DUP2 MSTORE PUSH1 0x4 ADD PUSH1 0x40 MLOAD DUP1 SWAP2 SUB SWAP1 REVERT JUMPDEST PUSH0 DUP2 DUP7 DUP2 SLOAD DUP2 LT PUSH2 0xB1C JUMPI PUSH2 0xB1C PUSH2 0x158F JUMP JUMPDEST PUSH0 SWAP2 DUP3 MSTORE PUSH1 0x20 DUP1 DUP4 KECCAK256 CALLER DUP5 MSTORE PUSH1 0x4 SWAP1 SWAP2 MSTORE PUSH1 0x40 SWAP3 DUP4 SWAP1 KECCAK256 SWAP3 MLOAD PUSH1 0x3 SWAP1 SWAP3 MUL ADD SWAP3 POP PUSH2 0xB47 SWAP2 SWAP1 PUSH2 0x17F3 JUMP JUMPDEST PUSH1 0x40 MLOAD DUP1 SWAP2 SUB SWAP1 KECCAK256 DUP2 PUSH1 0x2 ADD PUSH1 0x40 MLOAD PUSH2 0xB60 SWAP2 SWAP1 PUSH2 0x17F3 JUMP JUMPDEST PUSH1 0x40 MLOAD DUP1 SWAP2 SUB SWAP1 KECCAK256 EQ PUSH2 0xB86 JUMPI PUSH1 0x40 MLOAD PUSH4 0x785B63F PUSH1 0xE5 SHL DUP2 MSTORE PUSH1 0x4 ADD PUSH1 0x40 MLOAD DUP1 SWAP2 SUB SWAP1 REVERT JUMPDEST PUSH1 0x1 DUP2 ADD SLOAD PUSH1 0x1 PUSH1 0x50 SHL SWAP1 DIV PUSH1 0xFF AND ISZERO PUSH2 0xBB3 JUMPI PUSH1 0x40 MLOAD PUSH4 0x905E7107 PUSH1 0xE0 SHL DUP2 MSTORE PUSH1 0x4 ADD PUSH1 0x40 MLOAD DUP1 SWAP2 SUB SWAP1 REVERT JUMPDEST PUSH1 0x1 DUP2 ADD DUP1 SLOAD PUSH1 0xFF PUSH1 0x50 SHL NOT AND PUSH1 0x1 PUSH1 0x50 SHL OR SWAP1 SSTORE PUSH1 0x40 MLOAD CALLER SWAP1 DUP8 SWAP1 DUP6 SWAP1 PUSH32 0x689B463DB60F016E62FFC90170CF995743E7493EE875EDF675111B49FF2DA5CA SWAP1 PUSH2 0xC00 SWAP1 DUP11 SWAP1 DUP11 SWAP1 PUSH2 0x188D JUMP JUMPDEST PUSH1 0x40 MLOAD DUP1 SWAP2 SUB SWAP1 LOG4 POP POP POP POP POP POP POP POP JUMP JUMPDEST PUSH0 SLOAD PUSH1 0x1 PUSH1 0x1 PUSH1 0xA0 SHL SUB AND CALLER EQ PUSH2 0xC3C JUMPI PUSH1 0x40 MLOAD PUSH4 0x30CD7471 PUSH1 0xE0 SHL DUP2 MSTORE PUSH1 0x4 ADD PUSH1 0x40 MLOAD DUP1 SWAP2 SUB SWAP1 REVERT JUMPDEST PUSH1 0x1 PUSH1 0x1 PUSH1 0xA0 SHL SUB DUP4 AND PUSH0 SWAP1 DUP2 MSTORE PUSH1 0x2 PUSH1 0x20 MSTORE PUSH1 0x40 SWAP1 KECCAK256 SLOAD PUSH1 0xFF AND PUSH2 0xC74 JUMPI PUSH1 0x40 MLOAD PUSH4 0x1D342F47 PUSH1 0xE0 SHL DUP2 MSTORE PUSH1 0x4 ADD PUSH1 0x40 MLOAD DUP1 SWAP2 SUB SWAP1 REVERT JUMPDEST PUSH1 0x1 PUSH1 0x1 PUSH1 0xA0 SHL SUB DUP4 AND PUSH0 DUP2 DUP2 MSTORE PUSH1 0x2 PUSH1 0x20 MSTORE PUSH1 0x40 SWAP1 DUP2 SWAP1 KECCAK256 DUP1 SLOAD PUSH1 0xFF NOT AND SWAP1 SSTORE MLOAD PUSH32 0x320FFF6CFC59912347121BBB58200B60A91F754C2643EFBBD445A36AC76FBB5B SWAP1 PUSH2 0xCC5 SWAP1 DUP6 SWAP1 DUP6 SWAP1 PUSH2 0x188D JUMP JUMPDEST PUSH1 0x40 MLOAD DUP1 SWAP2 SUB SWAP1 LOG2 POP POP POP JUMP JUMPDEST PUSH0 SLOAD PUSH1 0x1 PUSH1 0x1 PUSH1 0xA0 SHL SUB AND CALLER EQ PUSH2 0xCFC JUMPI PUSH1 0x40 MLOAD PUSH4 0x30CD7471 PUSH1 0xE0 SHL DUP2 MSTORE PUSH1 0x4 ADD PUSH1 0x40 MLOAD DUP1 SWAP2 SUB SWAP1 REVERT JUMPDEST PUSH1 0x1 PUSH1 0x1 PUSH1 0xA0 SHL SUB DUP6 AND PUSH2 0xD23 JUMPI PUSH1 0x40 MLOAD PUSH4 0xD92E233D PUSH1 0xE0 SHL DUP2 MSTORE PUSH1 0x4 ADD PUSH1 0x40 MLOAD DUP1 SWAP2 SUB SWAP1 REVERT JUMPDEST PUSH1 0x1 PUSH1 0x1 PUSH1 0xA0 SHL SUB DUP6 AND PUSH0 SWAP1 DUP2 MSTORE PUSH1 0x2 PUSH1 0x20 MSTORE PUSH1 0x40 SWAP1 KECCAK256 SLOAD PUSH1 0xFF AND ISZERO PUSH2 0xD5C JUMPI PUSH1 0x40 MLOAD PUSH4 0x58AD8701 PUSH1 0xE0 SHL DUP2 MSTORE PUSH1 0x4 ADD PUSH1 0x40 MLOAD DUP1 SWAP2 SUB SWAP1 REVERT JUMPDEST PUSH2 0xD66 DUP5 DUP5 PUSH2 0x10F0 JUMP JUMPDEST PUSH1 0x1 PUSH1 0x1 PUSH1 0xA0 SHL SUB DUP6 AND PUSH0 SWAP1 DUP2 MSTORE PUSH1 0x2 PUSH1 0x20 SWAP1 DUP2 MSTORE PUSH1 0x40 DUP1 DUP4 KECCAK256 DUP1 SLOAD PUSH1 0xFF NOT AND PUSH1 0x1 OR SWAP1 SSTORE PUSH1 0x4 SWAP1 SWAP2 MSTORE SWAP1 KECCAK256 PUSH2 0xD9D DUP5 DUP7 DUP4 PUSH2 0x18A8 JUMP JUMPDEST POP PUSH1 0x1 PUSH1 0x1 PUSH1 0xA0 SHL SUB DUP6 AND PUSH0 SWAP1 DUP2 MSTORE PUSH1 0x3 PUSH1 0x20 MSTORE PUSH1 0x40 SWAP1 KECCAK256 PUSH2 0xDC0 DUP3 DUP5 DUP4 PUSH2 0x18A8 JUMP JUMPDEST POP DUP5 PUSH1 0x1 PUSH1 0x1 PUSH1 0xA0 SHL SUB AND PUSH32 0x1E315A58F8463E139766244F30B15BF3EC85DC702457A270A1C791A4FED48431 DUP6 DUP6 DUP6 DUP6 PUSH1 0x40 MLOAD PUSH2 0xE00 SWAP5 SWAP4 SWAP3 SWAP2 SWAP1 PUSH2 0x1961 JUMP JUMPDEST PUSH1 0x40 MLOAD DUP1 SWAP2 SUB SWAP1 LOG2 POP POP POP POP POP JUMP JUMPDEST PUSH1 0x3 PUSH1 0x20 MSTORE PUSH0 SWAP1 DUP2 MSTORE PUSH1 0x40 SWAP1 KECCAK256 DUP1 SLOAD PUSH2 0xA0D SWAP1 PUSH2 0x15A3 JUMP JUMPDEST PUSH0 SLOAD PUSH1 0x1 PUSH1 0x1 PUSH1 0xA0 SHL SUB AND CALLER EQ PUSH2 0xE51 JUMPI PUSH1 0x40 MLOAD PUSH4 0x30CD7471 PUSH1 0xE0 SHL DUP2 MSTORE PUSH1 0x4 ADD PUSH1 0x40 MLOAD DUP1 SWAP2 SUB SWAP1 REVERT JUMPDEST PUSH1 0x1 PUSH1 0x1 PUSH1 0xA0 SHL SUB DUP2 AND PUSH2 0xE78 JUMPI PUSH1 0x40 MLOAD PUSH4 0xD92E233D PUSH1 0xE0 SHL DUP2 MSTORE PUSH1 0x4 ADD PUSH1 0x40 MLOAD DUP1 SWAP2 SUB SWAP1 REVERT JUMPDEST PUSH1 0x1 DUP1 SLOAD PUSH1 0x1 PUSH1 0x1 PUSH1 0xA0 SHL SUB NOT AND PUSH1 0x1 PUSH1 0x1 PUSH1 0xA0 SHL SUB DUP4 DUP2 AND SWAP2 DUP3 OR SWAP1 SWAP3 SSTORE PUSH0 DUP1 SLOAD PUSH1 0x40 MLOAD SWAP3 SWAP4 AND SWAP2 PUSH32 0xB150023A879FD806E3599B6CA8EE3B60F0E360AB3846D128D67EBCE1A391639A SWAP2 SWAP1 LOG3 POP JUMP JUMPDEST PUSH0 DUP1 PUSH0 PUSH1 0x60 PUSH0 DUP1 DUP8 DUP8 PUSH1 0x40 MLOAD PUSH2 0xEDF SWAP3 SWAP2 SWAP1 PUSH2 0x1580 JUMP JUMPDEST PUSH1 0x40 DUP1 MLOAD SWAP2 DUP3 SWAP1 SUB SWAP1 SWAP2 KECCAK256 PUSH0 DUP2 DUP2 MSTORE PUSH1 0x5 PUSH1 0x20 MSTORE SWAP2 SWAP1 SWAP2 KECCAK256 DUP1 SLOAD SWAP2 SWAP3 POP SWAP1 JUMPDEST DUP1 ISZERO PUSH2 0x1024 JUMPI PUSH0 DUP3 PUSH2 0xF11 PUSH1 0x1 DUP5 PUSH2 0x15EF JUMP JUMPDEST DUP2 SLOAD DUP2 LT PUSH2 0xF21 JUMPI PUSH2 0xF21 PUSH2 0x158F JUMP JUMPDEST SWAP1 PUSH0 MSTORE PUSH1 0x20 PUSH0 KECCAK256 SWAP1 PUSH1 0x3 MUL ADD SWAP1 POP DUP1 PUSH1 0x1 ADD PUSH1 0xA SWAP1 SLOAD SWAP1 PUSH2 0x100 EXP SWAP1 DIV PUSH1 0xFF AND PUSH2 0x1011 JUMPI DUP1 SLOAD PUSH1 0x1 DUP1 DUP4 ADD SLOAD PUSH1 0x1 PUSH1 0x1 PUSH1 0x40 SHL SUB DUP2 AND SWAP2 PUSH1 0x1 PUSH1 0x40 SHL SWAP1 SWAP2 DIV PUSH2 0xFFFF AND SWAP1 PUSH1 0x2 DUP6 ADD SWAP1 PUSH2 0xF74 SWAP1 DUP8 PUSH2 0x15EF JUMP JUMPDEST DUP2 DUP1 SLOAD PUSH2 0xF80 SWAP1 PUSH2 0x15A3 JUMP JUMPDEST DUP1 PUSH1 0x1F ADD PUSH1 0x20 DUP1 SWAP2 DIV MUL PUSH1 0x20 ADD PUSH1 0x40 MLOAD SWAP1 DUP2 ADD PUSH1 0x40 MSTORE DUP1 SWAP3 SWAP2 SWAP1 DUP2 DUP2 MSTORE PUSH1 0x20 ADD DUP3 DUP1 SLOAD PUSH2 0xFAC SWAP1 PUSH2 0x15A3 JUMP JUMPDEST DUP1 ISZERO PUSH2 0xFF7 JUMPI DUP1 PUSH1 0x1F LT PUSH2 0xFCE JUMPI PUSH2 0x100 DUP1 DUP4 SLOAD DIV MUL DUP4 MSTORE SWAP2 PUSH1 0x20 ADD SWAP2 PUSH2 0xFF7 JUMP JUMPDEST DUP3 ADD SWAP2 SWAP1 PUSH0 MSTORE PUSH1 0x20 PUSH0 KECCAK256 SWAP1 JUMPDEST DUP2 SLOAD DUP2 MSTORE SWAP1 PUSH1 0x1 ADD SWAP1 PUSH1 0x20 ADD DUP1 DUP4 GT PUSH2 0xFDA JUMPI DUP3 SWAP1 SUB PUSH1 0x1F AND DUP3 ADD SWAP2 JUMPDEST POP POP POP POP POP SWAP2 POP SWAP9 POP SWAP9 POP SWAP9 POP SWAP9 POP SWAP9 POP POP POP POP POP PUSH2 0x1044 JUMP JUMPDEST POP DUP1 PUSH2 0x101C DUP2 PUSH2 0x1602 JUMP JUMPDEST SWAP2 POP POP PUSH2 0xEFE JUMP JUMPDEST POP POP PUSH1 0x40 DUP1 MLOAD PUSH1 0x20 DUP2 ADD SWAP1 SWAP2 MSTORE PUSH0 DUP1 DUP3 MSTORE SWAP7 POP DUP7 SWAP6 POP DUP6 SWAP5 POP SWAP3 POP DUP4 SWAP2 POP POP JUMPDEST SWAP3 SWAP6 POP SWAP3 SWAP6 SWAP1 SWAP4 POP JUMP JUMPDEST PUSH0 DUP2 DUP2 JUMPDEST DUP6 DUP2 LT ISZERO PUSH2 0x10E4 JUMPI PUSH0 DUP8 DUP8 DUP4 DUP2 DUP2 LT PUSH2 0x106D JUMPI PUSH2 0x106D PUSH2 0x158F JUMP JUMPDEST SWAP1 POP PUSH1 0x20 MUL ADD CALLDATALOAD SWAP1 POP DUP1 DUP4 GT PUSH2 0x10AE JUMPI PUSH1 0x40 DUP1 MLOAD PUSH1 0x20 DUP2 ADD DUP6 SWAP1 MSTORE SWAP1 DUP2 ADD DUP3 SWAP1 MSTORE PUSH1 0x60 ADD PUSH1 0x40 MLOAD PUSH1 0x20 DUP2 DUP4 SUB SUB DUP2 MSTORE SWAP1 PUSH1 0x40 MSTORE DUP1 MLOAD SWAP1 PUSH1 0x20 ADD KECCAK256 SWAP3 POP PUSH2 0x10DB JUMP JUMPDEST PUSH1 0x40 DUP1 MLOAD PUSH1 0x20 DUP2 ADD DUP4 SWAP1 MSTORE SWAP1 DUP2 ADD DUP5 SWAP1 MSTORE PUSH1 0x60 ADD PUSH1 0x40 MLOAD PUSH1 0x20 DUP2 DUP4 SUB SUB DUP2 MSTORE SWAP1 PUSH1 0x40 MSTORE DUP1 MLOAD SWAP1 PUSH1 0x20 ADD KECCAK256 SWAP3 POP JUMPDEST POP PUSH1 0x1 ADD PUSH2 0x1052 JUMP JUMPDEST POP SWAP1 SWAP3 EQ SWAP5 SWAP4 POP POP POP POP JUMP JUMPDEST PUSH0 DUP3 DUP3 DUP1 DUP1 PUSH1 0x1F ADD PUSH1 0x20 DUP1 SWAP2 DIV MUL PUSH1 0x20 ADD PUSH1 0x40 MLOAD SWAP1 DUP2 ADD PUSH1 0x40 MSTORE DUP1 SWAP4 SWAP3 SWAP2 SWAP1 DUP2 DUP2 MSTORE PUSH1 0x20 ADD DUP4 DUP4 DUP1 DUP3 DUP5 CALLDATACOPY PUSH0 SWAP3 ADD DUP3 SWAP1 MSTORE POP DUP5 MLOAD SWAP5 SWAP6 POP SWAP4 SWAP1 SWAP4 SUB SWAP3 POP PUSH2 0x114D SWAP2 POP POP JUMPI PUSH1 0x40 MLOAD PUSH4 0xAA72842F PUSH1 0xE0 SHL DUP2 MSTORE PUSH1 0x4 ADD PUSH1 0x40 MLOAD DUP1 SWAP2 SUB SWAP1 REVERT JUMPDEST PUSH2 0x100 DUP2 MLOAD GT ISZERO PUSH2 0x1171 JUMPI PUSH1 0x40 MLOAD PUSH4 0xF253CEED PUSH1 0xE0 SHL DUP2 MSTORE PUSH1 0x4 ADD PUSH1 0x40 MLOAD DUP1 SWAP2 SUB SWAP1 REVERT JUMPDEST POP POP POP JUMP JUMPDEST PUSH0 DUP1 DUP4 PUSH1 0x1F DUP5 ADD SLT PUSH2 0x1186 JUMPI PUSH0 DUP1 REVERT JUMPDEST POP DUP2 CALLDATALOAD PUSH1 0x1 PUSH1 0x1 PUSH1 0x40 SHL SUB DUP2 GT ISZERO PUSH2 0x119C JUMPI PUSH0 DUP1 REVERT JUMPDEST PUSH1 0x20 DUP4 ADD SWAP2 POP DUP4 PUSH1 0x20 DUP3 DUP6 ADD ADD GT ISZERO PUSH2 0x11B3 JUMPI PUSH0 DUP1 REVERT JUMPDEST SWAP3 POP SWAP3 SWAP1 POP JUMP JUMPDEST PUSH0 DUP1 PUSH0 PUSH1 0x40 DUP5 DUP7 SUB SLT ISZERO PUSH2 0x11CC JUMPI PUSH0 DUP1 REVERT JUMPDEST DUP4 CALLDATALOAD PUSH1 0x1 PUSH1 0x1 PUSH1 0x40 SHL SUB DUP2 GT ISZERO PUSH2 0x11E1 JUMPI PUSH0 DUP1 REVERT JUMPDEST PUSH2 0x11ED DUP7 DUP3 DUP8 ADD PUSH2 0x1176 JUMP JUMPDEST SWAP1 SWAP8 SWAP1 SWAP7 POP PUSH1 0x20 SWAP6 SWAP1 SWAP6 ADD CALLDATALOAD SWAP5 SWAP4 POP POP POP POP JUMP JUMPDEST PUSH0 DUP2 MLOAD DUP1 DUP5 MSTORE PUSH0 JUMPDEST DUP2 DUP2 LT ISZERO PUSH2 0x1225 JUMPI PUSH1 0x20 DUP2 DUP6 ADD DUP2 ADD MLOAD DUP7 DUP4 ADD DUP3 ADD MSTORE ADD PUSH2 0x1209 JUMP JUMPDEST POP PUSH0 PUSH1 0x20 DUP3 DUP7 ADD ADD MSTORE PUSH1 0x20 PUSH1 0x1F NOT PUSH1 0x1F DUP4 ADD AND DUP6 ADD ADD SWAP2 POP POP SWAP3 SWAP2 POP POP JUMP JUMPDEST DUP6 DUP2 MSTORE PUSH1 0x1 PUSH1 0x1 PUSH1 0x40 SHL SUB DUP6 AND PUSH1 0x20 DUP3 ADD MSTORE PUSH2 0xFFFF DUP5 AND PUSH1 0x40 DUP3 ADD MSTORE DUP3 ISZERO ISZERO PUSH1 0x60 DUP3 ADD MSTORE PUSH1 0xA0 PUSH1 0x80 DUP3 ADD MSTORE PUSH0 PUSH2 0x127D PUSH1 0xA0 DUP4 ADD DUP5 PUSH2 0x1201 JUMP JUMPDEST SWAP8 SWAP7 POP POP POP POP POP POP POP JUMP JUMPDEST PUSH0 DUP1 PUSH0 DUP1 PUSH0 PUSH1 0x60 DUP7 DUP9 SUB SLT ISZERO PUSH2 0x129C JUMPI PUSH0 DUP1 REVERT JUMPDEST DUP6 CALLDATALOAD PUSH1 0x1 PUSH1 0x1 PUSH1 0x40 SHL SUB DUP1 DUP3 GT ISZERO PUSH2 0x12B2 JUMPI PUSH0 DUP1 REVERT JUMPDEST PUSH2 0x12BE DUP10 DUP4 DUP11 ADD PUSH2 0x1176 JUMP JUMPDEST SWAP1 SWAP8 POP SWAP6 POP PUSH1 0x20 DUP9 ADD CALLDATALOAD SWAP5 POP PUSH1 0x40 DUP9 ADD CALLDATALOAD SWAP2 POP DUP1 DUP3 GT ISZERO PUSH2 0x12DD JUMPI PUSH0 DUP1 REVERT JUMPDEST DUP2 DUP9 ADD SWAP2 POP DUP9 PUSH1 0x1F DUP4 ADD SLT PUSH2 0x12F0 JUMPI PUSH0 DUP1 REVERT JUMPDEST DUP2 CALLDATALOAD DUP2 DUP2 GT ISZERO PUSH2 0x12FE JUMPI PUSH0 DUP1 REVERT JUMPDEST DUP10 PUSH1 0x20 DUP3 PUSH1 0x5 SHL DUP6 ADD ADD GT ISZERO PUSH2 0x1312 JUMPI PUSH0 DUP1 REVERT JUMPDEST SWAP7 SWAP10 SWAP6 SWAP9 POP SWAP4 SWAP7 POP PUSH1 0x20 ADD SWAP5 SWAP4 SWAP3 POP POP POP JUMP JUMPDEST PUSH0 DUP1 PUSH0 PUSH1 0x40 DUP5 DUP7 SUB SLT ISZERO PUSH2 0x1337 JUMPI PUSH0 DUP1 REVERT JUMPDEST DUP4 CALLDATALOAD PUSH1 0x1 PUSH1 0x1 PUSH1 0x40 SHL SUB DUP1 DUP3 GT ISZERO PUSH2 0x134D JUMPI PUSH0 DUP1 REVERT JUMPDEST PUSH2 0x1359 DUP8 DUP4 DUP9 ADD PUSH2 0x1176 JUMP JUMPDEST SWAP1 SWAP6 POP SWAP4 POP PUSH1 0x20 DUP7 ADD CALLDATALOAD SWAP2 POP DUP1 DUP3 AND DUP3 EQ PUSH2 0x1372 JUMPI PUSH0 DUP1 REVERT JUMPDEST POP DUP1 SWAP2 POP POP SWAP3 POP SWAP3 POP SWAP3 JUMP JUMPDEST PUSH0 PUSH1 0x20 DUP3 DUP5 SUB SLT ISZERO PUSH2 0x138E JUMPI PUSH0 DUP1 REVERT JUMPDEST POP CALLDATALOAD SWAP2 SWAP1 POP JUMP JUMPDEST PUSH0 DUP1 PUSH1 0x20 DUP4 DUP6 SUB SLT ISZERO PUSH2 0x13A6 JUMPI PUSH0 DUP1 REVERT JUMPDEST DUP3 CALLDATALOAD PUSH1 0x1 PUSH1 0x1 PUSH1 0x40 SHL SUB DUP2 GT ISZERO PUSH2 0x13BB JUMPI PUSH0 DUP1 REVERT JUMPDEST PUSH2 0x13C7 DUP6 DUP3 DUP7 ADD PUSH2 0x1176 JUMP JUMPDEST SWAP1 SWAP7 SWAP1 SWAP6 POP SWAP4 POP POP POP POP JUMP JUMPDEST DUP1 CALLDATALOAD PUSH1 0x1 PUSH1 0x1 PUSH1 0xA0 SHL SUB DUP2 AND DUP2 EQ PUSH2 0x13E9 JUMPI PUSH0 DUP1 REVERT JUMPDEST SWAP2 SWAP1 POP JUMP JUMPDEST PUSH0 PUSH1 0x20 DUP3 DUP5 SUB SLT ISZERO PUSH2 0x13FE JUMPI PUSH0 DUP1 REVERT JUMPDEST PUSH2 0x1407 DUP3 PUSH2 0x13D3 JUMP JUMPDEST SWAP4 SWAP3 POP POP POP JUMP JUMPDEST PUSH1 0x20 DUP2 MSTORE PUSH0 PUSH2 0x1407 PUSH1 0x20 DUP4 ADD DUP5 PUSH2 0x1201 JUMP JUMPDEST PUSH0 DUP1 PUSH0 DUP1 PUSH0 PUSH1 0x60 DUP7 DUP9 SUB SLT ISZERO PUSH2 0x1434 JUMPI PUSH0 DUP1 REVERT JUMPDEST DUP6 CALLDATALOAD PUSH1 0x1 PUSH1 0x1 PUSH1 0x40 SHL SUB DUP1 DUP3 GT ISZERO PUSH2 0x144A JUMPI PUSH0 DUP1 REVERT JUMPDEST PUSH2 0x1456 DUP10 DUP4 DUP11 ADD PUSH2 0x1176 JUMP JUMPDEST SWAP1 SWAP8 POP SWAP6 POP PUSH1 0x20 DUP9 ADD CALLDATALOAD SWAP5 POP PUSH1 0x40 DUP9 ADD CALLDATALOAD SWAP2 POP DUP1 DUP3 GT ISZERO PUSH2 0x1475 JUMPI PUSH0 DUP1 REVERT JUMPDEST POP PUSH2 0x1482 DUP9 DUP3 DUP10 ADD PUSH2 0x1176 JUMP JUMPDEST SWAP7 SWAP10 SWAP6 SWAP9 POP SWAP4 SWAP7 POP SWAP3 SWAP5 SWAP4 SWAP3 POP POP POP JUMP JUMPDEST PUSH0 DUP1 PUSH0 PUSH1 0x40 DUP5 DUP7 SUB SLT ISZERO PUSH2 0x14A5 JUMPI PUSH0 DUP1 REVERT JUMPDEST PUSH2 0x14AE DUP5 PUSH2 0x13D3 JUMP JUMPDEST SWAP3 POP PUSH1 0x20 DUP5 ADD CALLDATALOAD PUSH1 0x1 PUSH1 0x1 PUSH1 0x40 SHL SUB DUP2 GT ISZERO PUSH2 0x14C8 JUMPI PUSH0 DUP1 REVERT JUMPDEST PUSH2 0x14D4 DUP7 DUP3 DUP8 ADD PUSH2 0x1176 JUMP JUMPDEST SWAP5 SWAP8 SWAP1 SWAP7 POP SWAP4 SWAP5 POP POP POP POP JUMP JUMPDEST PUSH0 DUP1 PUSH0 DUP1 PUSH0 PUSH1 0x60 DUP7 DUP9 SUB SLT ISZERO PUSH2 0x14F5 JUMPI PUSH0 DUP1 REVERT JUMPDEST PUSH2 0x14FE DUP7 PUSH2 0x13D3 JUMP JUMPDEST SWAP5 POP PUSH1 0x20 DUP7 ADD CALLDATALOAD PUSH1 0x1 PUSH1 0x1 PUSH1 0x40 SHL SUB DUP1 DUP3 GT ISZERO PUSH2 0x1519 JUMPI PUSH0 DUP1 REVERT JUMPDEST PUSH2 0x1525 DUP10 DUP4 DUP11 ADD PUSH2 0x1176 JUMP JUMPDEST SWAP1 SWAP7 POP SWAP5 POP PUSH1 0x40 DUP9 ADD CALLDATALOAD SWAP2 POP DUP1 DUP3 GT ISZERO PUSH2 0x1475 JUMPI PUSH0 DUP1 REVERT JUMPDEST DUP6 DUP2 MSTORE PUSH1 0x1 PUSH1 0x1 PUSH1 0x40 SHL SUB DUP6 AND PUSH1 0x20 DUP3 ADD MSTORE PUSH2 0xFFFF DUP5 AND PUSH1 0x40 DUP3 ADD MSTORE PUSH1 0xA0 PUSH1 0x60 DUP3 ADD MSTORE PUSH0 PUSH2 0x156E PUSH1 0xA0 DUP4 ADD DUP6 PUSH2 0x1201 JUMP JUMPDEST SWAP1 POP DUP3 PUSH1 0x80 DUP4 ADD MSTORE SWAP7 SWAP6 POP POP POP POP POP POP JUMP JUMPDEST DUP2 DUP4 DUP3 CALLDATACOPY PUSH0 SWAP2 ADD SWAP1 DUP2 MSTORE SWAP2 SWAP1 POP JUMP JUMPDEST PUSH4 0x4E487B71 PUSH1 0xE0 SHL PUSH0 MSTORE PUSH1 0x32 PUSH1 0x4 MSTORE PUSH1 0x24 PUSH0 REVERT JUMPDEST PUSH1 0x1 DUP2 DUP2 SHR SWAP1 DUP3 AND DUP1 PUSH2 0x15B7 JUMPI PUSH1 0x7F DUP3 AND SWAP2 POP JUMPDEST PUSH1 0x20 DUP3 LT DUP2 SUB PUSH2 0x15D5 JUMPI PUSH4 0x4E487B71 PUSH1 0xE0 SHL PUSH0 MSTORE PUSH1 0x22 PUSH1 0x4 MSTORE PUSH1 0x24 PUSH0 REVERT JUMPDEST POP SWAP2 SWAP1 POP JUMP JUMPDEST PUSH4 0x4E487B71 PUSH1 0xE0 SHL PUSH0 MSTORE PUSH1 0x11 PUSH1 0x4 MSTORE PUSH1 0x24 PUSH0 REVERT JUMPDEST DUP2 DUP2 SUB DUP2 DUP2 GT ISZERO PUSH2 0x962 JUMPI PUSH2 0x962 PUSH2 0x15DB JUMP JUMPDEST PUSH0 DUP2 PUSH2 0x1610 JUMPI PUSH2 0x1610 PUSH2 0x15DB JUMP JUMPDEST POP PUSH0 NOT ADD SWAP1 JUMP JUMPDEST PUSH4 0x4E487B71 PUSH1 0xE0 SHL PUSH0 MSTORE PUSH1 0x41 PUSH1 0x4 MSTORE PUSH1 0x24 PUSH0 REVERT JUMPDEST PUSH1 0x1F DUP3 GT ISZERO PUSH2 0x1171 JUMPI DUP1 PUSH0 MSTORE PUSH1 0x20 PUSH0 KECCAK256 PUSH1 0x1F DUP5 ADD PUSH1 0x5 SHR DUP2 ADD PUSH1 0x20 DUP6 LT ISZERO PUSH2 0x1650 JUMPI POP DUP1 JUMPDEST PUSH1 0x1F DUP5 ADD PUSH1 0x5 SHR DUP3 ADD SWAP2 POP JUMPDEST DUP2 DUP2 LT ISZERO PUSH2 0x166F JUMPI PUSH0 DUP2 SSTORE PUSH1 0x1 ADD PUSH2 0x165C JUMP JUMPDEST POP POP POP POP POP JUMP JUMPDEST DUP2 MLOAD PUSH1 0x1 PUSH1 0x1 PUSH1 0x40 SHL SUB DUP2 GT ISZERO PUSH2 0x168F JUMPI PUSH2 0x168F PUSH2 0x1617 JUMP JUMPDEST PUSH2 0x16A3 DUP2 PUSH2 0x169D DUP5 SLOAD PUSH2 0x15A3 JUMP JUMPDEST DUP5 PUSH2 0x162B JUMP JUMPDEST PUSH1 0x20 DUP1 PUSH1 0x1F DUP4 GT PUSH1 0x1 DUP2 EQ PUSH2 0x16D6 JUMPI PUSH0 DUP5 ISZERO PUSH2 0x16BF JUMPI POP DUP6 DUP4 ADD MLOAD JUMPDEST PUSH0 NOT PUSH1 0x3 DUP7 SWAP1 SHL SHR NOT AND PUSH1 0x1 DUP6 SWAP1 SHL OR DUP6 SSTORE PUSH2 0x172D JUMP JUMPDEST PUSH0 DUP6 DUP2 MSTORE PUSH1 0x20 DUP2 KECCAK256 PUSH1 0x1F NOT DUP7 AND SWAP2 JUMPDEST DUP3 DUP2 LT ISZERO PUSH2 0x1704 JUMPI DUP9 DUP7 ADD MLOAD DUP3 SSTORE SWAP5 DUP5 ADD SWAP5 PUSH1 0x1 SWAP1 SWAP2 ADD SWAP1 DUP5 ADD PUSH2 0x16E5 JUMP JUMPDEST POP DUP6 DUP3 LT ISZERO PUSH2 0x1721 JUMPI DUP8 DUP6 ADD MLOAD PUSH0 NOT PUSH1 0x3 DUP9 SWAP1 SHL PUSH1 0xF8 AND SHR NOT AND DUP2 SSTORE JUMPDEST POP POP PUSH1 0x1 DUP5 PUSH1 0x1 SHL ADD DUP6 SSTORE JUMPDEST POP POP POP POP POP POP JUMP JUMPDEST DUP1 DUP3 ADD DUP1 DUP3 GT ISZERO PUSH2 0x962 JUMPI PUSH2 0x962 PUSH2 0x15DB JUMP JUMPDEST PUSH1 0x80 DUP2 MSTORE PUSH0 DUP1 DUP7 SLOAD PUSH2 0x1759 DUP2 PUSH2 0x15A3 JUMP JUMPDEST DUP1 PUSH1 0x80 DUP7 ADD MSTORE PUSH1 0xA0 PUSH1 0x1 DUP1 DUP5 AND PUSH0 DUP2 EQ PUSH2 0x177A JUMPI PUSH1 0x1 DUP2 EQ PUSH2 0x1796 JUMPI PUSH2 0x17C5 JUMP JUMPDEST PUSH1 0xFF NOT DUP6 AND PUSH1 0xA0 DUP10 ADD MSTORE PUSH1 0xA0 DUP5 ISZERO ISZERO PUSH1 0x5 SHL DUP10 ADD ADD SWAP6 POP PUSH2 0x17C5 JUMP JUMPDEST DUP12 PUSH0 MSTORE PUSH1 0x20 DUP1 PUSH0 KECCAK256 PUSH0 JUMPDEST DUP7 DUP2 LT ISZERO PUSH2 0x17BB JUMPI DUP2 SLOAD DUP12 DUP3 ADD DUP8 ADD MSTORE SWAP1 DUP5 ADD SWAP1 DUP3 ADD PUSH2 0x17A0 JUMP JUMPDEST DUP11 ADD PUSH1 0xA0 ADD SWAP8 POP POP POP JUMPDEST POP POP POP POP POP PUSH1 0x20 DUP4 ADD SWAP6 SWAP1 SWAP6 MSTORE POP PUSH2 0xFFFF SWAP3 SWAP1 SWAP3 AND PUSH1 0x40 DUP4 ADD MSTORE PUSH1 0x1 PUSH1 0x1 PUSH1 0x40 SHL SUB AND PUSH1 0x60 SWAP1 SWAP2 ADD MSTORE SWAP2 SWAP1 POP JUMP JUMPDEST PUSH0 DUP1 DUP4 SLOAD PUSH2 0x1800 DUP2 PUSH2 0x15A3 JUMP JUMPDEST PUSH1 0x1 DUP3 DUP2 AND DUP1 ISZERO PUSH2 0x1818 JUMPI PUSH1 0x1 DUP2 EQ PUSH2 0x182D JUMPI PUSH2 0x1859 JUMP JUMPDEST PUSH1 0xFF NOT DUP5 AND DUP8 MSTORE DUP3 ISZERO ISZERO DUP4 MUL DUP8 ADD SWAP5 POP PUSH2 0x1859 JUMP JUMPDEST DUP8 PUSH0 MSTORE PUSH1 0x20 DUP1 PUSH0 KECCAK256 PUSH0 JUMPDEST DUP6 DUP2 LT ISZERO PUSH2 0x1850 JUMPI DUP2 SLOAD DUP11 DUP3 ADD MSTORE SWAP1 DUP5 ADD SWAP1 DUP3 ADD PUSH2 0x1837 JUMP JUMPDEST POP POP POP DUP3 DUP8 ADD SWAP5 POP JUMPDEST POP SWAP3 SWAP7 SWAP6 POP POP POP POP POP POP JUMP JUMPDEST DUP2 DUP4 MSTORE DUP2 DUP2 PUSH1 0x20 DUP6 ADD CALLDATACOPY POP PUSH0 DUP3 DUP3 ADD PUSH1 0x20 SWAP1 DUP2 ADD SWAP2 SWAP1 SWAP2 MSTORE PUSH1 0x1F SWAP1 SWAP2 ADD PUSH1 0x1F NOT AND SWAP1 SWAP2 ADD ADD SWAP1 JUMP JUMPDEST PUSH1 0x20 DUP2 MSTORE PUSH0 PUSH2 0x18A0 PUSH1 0x20 DUP4 ADD DUP5 DUP7 PUSH2 0x1865 JUMP JUMPDEST SWAP5 SWAP4 POP POP POP POP JUMP JUMPDEST PUSH1 0x1 PUSH1 0x1 PUSH1 0x40 SHL SUB DUP4 GT ISZERO PUSH2 0x18BF JUMPI PUSH2 0x18BF PUSH2 0x1617 JUMP JUMPDEST PUSH2 0x18D3 DUP4 PUSH2 0x18CD DUP4 SLOAD PUSH2 0x15A3 JUMP JUMPDEST DUP4 PUSH2 0x162B JUMP JUMPDEST PUSH0 PUSH1 0x1F DUP5 GT PUSH1 0x1 DUP2 EQ PUSH2 0x1904 JUMPI PUSH0 DUP6 ISZERO PUSH2 0x18ED JUMPI POP DUP4 DUP3 ADD CALLDATALOAD JUMPDEST PUSH0 NOT PUSH1 0x3 DUP8 SWAP1 SHL SHR NOT AND PUSH1 0x1 DUP7 SWAP1 SHL OR DUP4 SSTORE PUSH2 0x166F JUMP JUMPDEST PUSH0 DUP4 DUP2 MSTORE PUSH1 0x20 DUP2 KECCAK256 PUSH1 0x1F NOT DUP8 AND SWAP2 JUMPDEST DUP3 DUP2 LT ISZERO PUSH2 0x1933 JUMPI DUP7 DUP6 ADD CALLDATALOAD DUP3 SSTORE PUSH1 0x20 SWAP5 DUP6 ADD SWAP5 PUSH1 0x1 SWAP1 SWAP3 ADD SWAP2 ADD PUSH2 0x1913 JUMP JUMPDEST POP DUP7 DUP3 LT ISZERO PUSH2 0x194F JUMPI PUSH0 NOT PUSH1 0xF8 DUP9 PUSH1 0x3 SHL AND SHR NOT DUP5 DUP8 ADD CALLDATALOAD AND DUP2 SSTORE JUMPDEST POP POP PUSH1 0x1 DUP6 PUSH1 0x1 SHL ADD DUP4 SSTORE POP POP POP POP POP JUMP JUMPDEST PUSH1 0x40 DUP2 MSTORE PUSH0 PUSH2 0x1974 PUSH1 0x40 DUP4 ADD DUP7 DUP9 PUSH2 0x1865 JUMP JUMPDEST DUP3 DUP2 SUB PUSH1 0x20 DUP5 ADD MSTORE PUSH2 0x127D DUP2 DUP6 DUP8 PUSH2 0x1865 JUMP INVALID LOG2 PUSH5 0x6970667358 0x22 SLT KECCAK256 JUMPDEST PUSH23 0xAA0D3B605B4A1E6790CC5C355FF1955E1065CBC6CFE786 0xEC LOG1 0x2B 0xC0 0xD2 SWAP11 0xD2 PUSH5 0x736F6C6343 STOP ADDMOD XOR STOP CALLER "},"methodIdentifiers":{"MAX_DID_LENGTH()":"269c8d90","SCHEMA_VERSION()":"6233b32a","VERSION()":"ffa1ad74","acceptOwnership()":"79ba5097","anchorCount(bytes32)":"4cad6a99","anchorRoot(string,bytes32)":"5911ff96","authorizeIssuer(address,string,string)":"ce1ac227","authorizedIssuers(address)":"f731fa0f","deauthorizeIssuer(address,string)":"c30b7016","getAnchorAt(string,uint256)":"27f7aa7b","getLatestRoot(string)":"f8e47cee","getRootAtTime(string,uint64)":"478a1c4f","hasAnchors(string)":"6435b91a","issuerDids(address)":"852b4aa1","issuerNames(address)":"e7af3bc4","owner()":"8da5cb5b","pendingOwner()":"e30c3978","revokeAnchor(string,uint256,string)":"bdfe72d1","transferOwnership(address)":"f2fde38b","verifyCredential(string,bytes32,bytes32[])":"39f2571d"}}}}}